{
  "address": "0x9F7a0797D0EFC3F85fF68112FE11A174aF00C2b4",
  "abi": [
    {
      "inputs": [],
      "stateMutability": "nonpayable",
      "type": "constructor"
    },
    {
      "anonymous": false,
      "inputs": [
        {
          "indexed": true,
          "internalType": "address",
          "name": "owner",
          "type": "address"
        },
        {
          "indexed": true,
          "internalType": "address",
          "name": "approved",
          "type": "address"
        },
        {
          "indexed": true,
          "internalType": "uint256",
          "name": "tokenId",
          "type": "uint256"
        }
      ],
      "name": "Approval",
      "type": "event"
    },
    {
      "anonymous": false,
      "inputs": [
        {
          "indexed": true,
          "internalType": "address",
          "name": "owner",
          "type": "address"
        },
        {
          "indexed": true,
          "internalType": "address",
          "name": "operator",
          "type": "address"
        },
        {
          "indexed": false,
          "internalType": "bool",
          "name": "approved",
          "type": "bool"
        }
      ],
      "name": "ApprovalForAll",
      "type": "event"
    },
    {
      "anonymous": false,
      "inputs": [
        {
          "indexed": true,
          "internalType": "address",
          "name": "from",
          "type": "address"
        },
        {
          "indexed": true,
          "internalType": "address",
          "name": "to",
          "type": "address"
        },
        {
          "indexed": true,
          "internalType": "uint256",
          "name": "tokenId",
          "type": "uint256"
        }
      ],
      "name": "Transfer",
      "type": "event"
    },
    {
      "inputs": [
        {
          "internalType": "address",
          "name": "to",
          "type": "address"
        },
        {
          "internalType": "uint256",
          "name": "tokenId",
          "type": "uint256"
        }
      ],
      "name": "approve",
      "outputs": [],
      "stateMutability": "nonpayable",
      "type": "function"
    },
    {
      "inputs": [
        {
          "internalType": "address",
          "name": "owner",
          "type": "address"
        }
      ],
      "name": "balanceOf",
      "outputs": [
        {
          "internalType": "uint256",
          "name": "",
          "type": "uint256"
        }
      ],
      "stateMutability": "view",
      "type": "function"
    },
    {
      "inputs": [
        {
          "internalType": "uint256",
          "name": "tokenId",
          "type": "uint256"
        }
      ],
      "name": "generateCharacter",
      "outputs": [
        {
          "internalType": "string",
          "name": "",
          "type": "string"
        }
      ],
      "stateMutability": "view",
      "type": "function"
    },
    {
      "inputs": [
        {
          "internalType": "uint256",
          "name": "tokenId",
          "type": "uint256"
        }
      ],
      "name": "getApproved",
      "outputs": [
        {
          "internalType": "address",
          "name": "",
          "type": "address"
        }
      ],
      "stateMutability": "view",
      "type": "function"
    },
    {
      "inputs": [
        {
          "internalType": "uint256",
          "name": "tokenId",
          "type": "uint256"
        }
      ],
      "name": "getLevels",
      "outputs": [
        {
          "internalType": "string",
          "name": "",
          "type": "string"
        }
      ],
      "stateMutability": "view",
      "type": "function"
    },
    {
      "inputs": [
        {
          "internalType": "uint256",
          "name": "tokenId",
          "type": "uint256"
        }
      ],
      "name": "getLife",
      "outputs": [
        {
          "internalType": "string",
          "name": "",
          "type": "string"
        }
      ],
      "stateMutability": "view",
      "type": "function"
    },
    {
      "inputs": [
        {
          "internalType": "uint256",
          "name": "tokenId",
          "type": "uint256"
        }
      ],
      "name": "getSpeed",
      "outputs": [
        {
          "internalType": "string",
          "name": "",
          "type": "string"
        }
      ],
      "stateMutability": "view",
      "type": "function"
    },
    {
      "inputs": [
        {
          "internalType": "uint256",
          "name": "tokenId",
          "type": "uint256"
        }
      ],
      "name": "getStrength",
      "outputs": [
        {
          "internalType": "string",
          "name": "",
          "type": "string"
        }
      ],
      "stateMutability": "view",
      "type": "function"
    },
    {
      "inputs": [
        {
          "internalType": "uint256",
          "name": "tokenId",
          "type": "uint256"
        }
      ],
      "name": "getTokenURI",
      "outputs": [
        {
          "internalType": "string",
          "name": "",
          "type": "string"
        }
      ],
      "stateMutability": "view",
      "type": "function"
    },
    {
      "inputs": [
        {
          "internalType": "address",
          "name": "owner",
          "type": "address"
        },
        {
          "internalType": "address",
          "name": "operator",
          "type": "address"
        }
      ],
      "name": "isApprovedForAll",
      "outputs": [
        {
          "internalType": "bool",
          "name": "",
          "type": "bool"
        }
      ],
      "stateMutability": "view",
      "type": "function"
    },
    {
      "inputs": [],
      "name": "mint",
      "outputs": [],
      "stateMutability": "nonpayable",
      "type": "function"
    },
    {
      "inputs": [],
      "name": "name",
      "outputs": [
        {
          "internalType": "string",
          "name": "",
          "type": "string"
        }
      ],
      "stateMutability": "view",
      "type": "function"
    },
    {
      "inputs": [
        {
          "internalType": "uint256",
          "name": "tokenId",
          "type": "uint256"
        }
      ],
      "name": "ownerOf",
      "outputs": [
        {
          "internalType": "address",
          "name": "",
          "type": "address"
        }
      ],
      "stateMutability": "view",
      "type": "function"
    },
    {
      "inputs": [
        {
          "internalType": "address",
          "name": "from",
          "type": "address"
        },
        {
          "internalType": "address",
          "name": "to",
          "type": "address"
        },
        {
          "internalType": "uint256",
          "name": "tokenId",
          "type": "uint256"
        }
      ],
      "name": "safeTransferFrom",
      "outputs": [],
      "stateMutability": "nonpayable",
      "type": "function"
    },
    {
      "inputs": [
        {
          "internalType": "address",
          "name": "from",
          "type": "address"
        },
        {
          "internalType": "address",
          "name": "to",
          "type": "address"
        },
        {
          "internalType": "uint256",
          "name": "tokenId",
          "type": "uint256"
        },
        {
          "internalType": "bytes",
          "name": "data",
          "type": "bytes"
        }
      ],
      "name": "safeTransferFrom",
      "outputs": [],
      "stateMutability": "nonpayable",
      "type": "function"
    },
    {
      "inputs": [
        {
          "internalType": "address",
          "name": "operator",
          "type": "address"
        },
        {
          "internalType": "bool",
          "name": "approved",
          "type": "bool"
        }
      ],
      "name": "setApprovalForAll",
      "outputs": [],
      "stateMutability": "nonpayable",
      "type": "function"
    },
    {
      "inputs": [
        {
          "internalType": "bytes4",
          "name": "interfaceId",
          "type": "bytes4"
        }
      ],
      "name": "supportsInterface",
      "outputs": [
        {
          "internalType": "bool",
          "name": "",
          "type": "bool"
        }
      ],
      "stateMutability": "view",
      "type": "function"
    },
    {
      "inputs": [],
      "name": "symbol",
      "outputs": [
        {
          "internalType": "string",
          "name": "",
          "type": "string"
        }
      ],
      "stateMutability": "view",
      "type": "function"
    },
    {
      "inputs": [
        {
          "internalType": "uint256",
          "name": "",
          "type": "uint256"
        }
      ],
      "name": "tokenIdToStats",
      "outputs": [
        {
          "internalType": "uint256",
          "name": "level",
          "type": "uint256"
        },
        {
          "internalType": "uint256",
          "name": "speed",
          "type": "uint256"
        },
        {
          "internalType": "uint256",
          "name": "strength",
          "type": "uint256"
        },
        {
          "internalType": "uint256",
          "name": "life",
          "type": "uint256"
        }
      ],
      "stateMutability": "view",
      "type": "function"
    },
    {
      "inputs": [
        {
          "internalType": "uint256",
          "name": "tokenId",
          "type": "uint256"
        }
      ],
      "name": "tokenURI",
      "outputs": [
        {
          "internalType": "string",
          "name": "",
          "type": "string"
        }
      ],
      "stateMutability": "view",
      "type": "function"
    },
    {
      "inputs": [
        {
          "internalType": "uint256",
          "name": "tokenId",
          "type": "uint256"
        }
      ],
      "name": "train",
      "outputs": [],
      "stateMutability": "nonpayable",
      "type": "function"
    },
    {
      "inputs": [
        {
          "internalType": "address",
          "name": "from",
          "type": "address"
        },
        {
          "internalType": "address",
          "name": "to",
          "type": "address"
        },
        {
          "internalType": "uint256",
          "name": "tokenId",
          "type": "uint256"
        }
      ],
      "name": "transferFrom",
      "outputs": [],
      "stateMutability": "nonpayable",
      "type": "function"
    }
  ],
  "transactionHash": "0x20b53e3a72ea23beedff3c4da4cda2b33433bb7abce2b8655e128608548f54ca",
  "args": [],
  "numDeployments": 3,
  "solcInputHash": "e2691542d95127eb655dfe3ca477690c",
  "bytecode": "0x60806040523480156200001157600080fd5b506040518060400160405280600d81526020017f436861696e20426174746c6573000000000000000000000000000000000000008152506040518060400160405280600581526020017f4342544c5300000000000000000000000000000000000000000000000000000081525081600090816200008f919062000324565b508060019081620000a1919062000324565b5050506200040b565b600081519050919050565b7f4e487b7100000000000000000000000000000000000000000000000000000000600052604160045260246000fd5b7f4e487b7100000000000000000000000000000000000000000000000000000000600052602260045260246000fd5b600060028204905060018216806200012c57607f821691505b602082108103620001425762000141620000e4565b5b50919050565b60008190508160005260206000209050919050565b60006020601f8301049050919050565b600082821b905092915050565b600060088302620001ac7fffffffffffffffffffffffffffffffffffffffffffffffffffffffffffffffff826200016d565b620001b886836200016d565b95508019841693508086168417925050509392505050565b6000819050919050565b6000819050919050565b600062000205620001ff620001f984620001d0565b620001da565b620001d0565b9050919050565b6000819050919050565b6200022183620001e4565b6200023962000230826200020c565b8484546200017a565b825550505050565b600090565b6200025062000241565b6200025d81848462000216565b505050565b5b8181101562000285576200027960008262000246565b60018101905062000263565b5050565b601f821115620002d4576200029e8162000148565b620002a9846200015d565b81016020851015620002b9578190505b620002d1620002c8856200015d565b83018262000262565b50505b505050565b600082821c905092915050565b6000620002f960001984600802620002d9565b1980831691505092915050565b6000620003148383620002e6565b9150826002028217905092915050565b6200032f82620000aa565b67ffffffffffffffff8111156200034b576200034a620000b5565b5b62000357825462000113565b6200036482828562000289565b600060209050601f8311600181146200039c576000841562000387578287015190505b62000393858262000306565b86555062000403565b601f198416620003ac8662000148565b60005b82811015620003d657848901518255600182019150602085019450602081019050620003af565b86831015620003f65784890151620003f2601f891682620002e6565b8355505b6001600288020188555050505b505050505050565b613ef8806200041b6000396000f3fe608060405234801561001057600080fd5b50600436106101425760003560e01c80634b93f753116100b8578063b88d4fde1161007c578063b88d4fde14610399578063c87b56dd146103b5578063c87bfc7f146103e5578063e53fbda614610418578063e985e9c514610448578063f43785f91461047857610142565b80634b93f753146102cf5780636352211e146102ff57806370a082311461032f57806395d89b411461035f578063a22cb4651461037d57610142565b806311251f1c1161010a57806311251f1c146102115780631249c58b1461024157806323b872dd1461024b578063368004ed146102675780633bb3a24d1461028357806342842e0e146102b357610142565b806301ffc9a71461014757806306fdde0314610177578063081812fc14610195578063095ea7b3146101c55780630daefed5146101e1575b600080fd5b610161600480360381019061015c919061217e565b6104a8565b60405161016e91906121c6565b60405180910390f35b61017f61058a565b60405161018c9190612271565b60405180910390f35b6101af60048036038101906101aa91906122c9565b61061c565b6040516101bc9190612337565b60405180910390f35b6101df60048036038101906101da919061237e565b610662565b005b6101fb60048036038101906101f691906122c9565b610779565b6040516102089190612271565b60405180910390f35b61022b600480360381019061022691906122c9565b6107f5565b6040516102389190612271565b60405180910390f35b610249610823565b005b610265600480360381019061026091906123be565b61093a565b005b610281600480360381019061027c91906122c9565b61099a565b005b61029d600480360381019061029891906122c9565b610a99565b6040516102aa9190612271565b60405180910390f35b6102cd60048036038101906102c891906123be565b610b01565b005b6102e960048036038101906102e491906122c9565b610b21565b6040516102f69190612271565b60405180910390f35b610319600480360381019061031491906122c9565b610b4f565b6040516103269190612337565b60405180910390f35b61034960048036038101906103449190612411565b610bd5565b604051610356919061244d565b60405180910390f35b610367610c8c565b6040516103749190612271565b60405180910390f35b61039760048036038101906103929190612494565b610d1e565b005b6103b360048036038101906103ae9190612609565b610d34565b005b6103cf60048036038101906103ca91906122c9565b610d96565b6040516103dc9190612271565b60405180910390f35b6103ff60048036038101906103fa91906122c9565b610ea8565b60405161040f949392919061268c565b60405180910390f35b610432600480360381019061042d91906122c9565b610ed8565b60405161043f9190612271565b60405180910390f35b610462600480360381019061045d91906126d1565b610f06565b60405161046f91906121c6565b60405180910390f35b610492600480360381019061048d91906122c9565b610f9a565b60405161049f9190612271565b60405180910390f35b60007f80ac58cd000000000000000000000000000000000000000000000000000000007bffffffffffffffffffffffffffffffffffffffffffffffffffffffff1916827bffffffffffffffffffffffffffffffffffffffffffffffffffffffff1916148061057357507f5b5e139f000000000000000000000000000000000000000000000000000000007bffffffffffffffffffffffffffffffffffffffffffffffffffffffff1916827bffffffffffffffffffffffffffffffffffffffffffffffffffffffff1916145b80610583575061058282610fc8565b5b9050919050565b60606000805461059990612740565b80601f01602080910402602001604051908101604052809291908181526020018280546105c590612740565b80156106125780601f106105e757610100808354040283529160200191610612565b820191906000526020600020905b8154815290600101906020018083116105f557829003601f168201915b5050505050905090565b600061062782611032565b6004600083815260200190815260200160002060009054906101000a900473ffffffffffffffffffffffffffffffffffffffff169050919050565b600061066d82610b4f565b90508073ffffffffffffffffffffffffffffffffffffffff168373ffffffffffffffffffffffffffffffffffffffff16036106dd576040517f08c379a00000000000000000000000000000000000000000000000000000000081526004016106d4906127e3565b60405180910390fd5b8073ffffffffffffffffffffffffffffffffffffffff166106fc61107d565b73ffffffffffffffffffffffffffffffffffffffff16148061072b575061072a8161072561107d565b610f06565b5b61076a576040517f08c379a000000000000000000000000000000000000000000000000000000000815260040161076190612875565b60405180910390fd5b6107748383611085565b505050565b6060600061078683610f9a565b61078f84610b21565b61079885610ed8565b6107a1866107f5565b6040516020016107b49493929190612ddd565b60405160208183030381529060405290506107ce8161113e565b6040516020016107de9190612f38565b604051602081830303815290604052915050919050565b606060006008600084815260200190815260200160002060030154905061081b816112a1565b915050919050565b61082d600761136f565b60006108396007611385565b90506108453382611393565b6000600860008381526020019081526020016000206000018190555060646008600083815260200190815260200160002060030181905550606442443360405160200161089493929190612fc3565b6040516020818303038152906040528051906020012060001c6108b7919061302f565b6008600083815260200190815260200160002060010181905550600d4244336040516020016108e893929190612fc3565b6040516020818303038152906040528051906020012060001c61090b919061302f565b60086000838152602001908152602001600020600201819055506109378161093283610a99565b6113b1565b50565b61094b61094561107d565b8261141e565b61098a576040517f08c379a0000000000000000000000000000000000000000000000000000000008152600401610981906130d2565b60405180910390fd5b6109958383836114b3565b505050565b6109a3816117ac565b6109e2576040517f08c379a00000000000000000000000000000000000000000000000000000000081526004016109d99061313e565b60405180910390fd5b3373ffffffffffffffffffffffffffffffffffffffff16610a0282610b4f565b73ffffffffffffffffffffffffffffffffffffffff1614610a58576040517f08c379a0000000000000000000000000000000000000000000000000000000008152600401610a4f906131d0565b60405180910390fd5b600860008281526020019081526020016000206000016000815480929190610a7f9061321f565b9190505550610a9681610a9183610a99565b6113b1565b50565b60606000610aa6836112a1565b610aaf84610779565b604051602001610ac09291906134a1565b6040516020818303038152906040529050610ada8161113e565b604051602001610aea919061355e565b604051602081830303815290604052915050919050565b610b1c83838360405180602001604052806000815250610d34565b505050565b6060600060086000848152602001908152602001600020600101549050610b47816112a1565b915050919050565b600080610b5b836117ed565b9050600073ffffffffffffffffffffffffffffffffffffffff168173ffffffffffffffffffffffffffffffffffffffff1603610bcc576040517f08c379a0000000000000000000000000000000000000000000000000000000008152600401610bc3906135cc565b60405180910390fd5b80915050919050565b60008073ffffffffffffffffffffffffffffffffffffffff168273ffffffffffffffffffffffffffffffffffffffff1603610c45576040517f08c379a0000000000000000000000000000000000000000000000000000000008152600401610c3c9061365e565b60405180910390fd5b600360008373ffffffffffffffffffffffffffffffffffffffff1673ffffffffffffffffffffffffffffffffffffffff168152602001908152602001600020549050919050565b606060018054610c9b90612740565b80601f0160208091040260200160405190810160405280929190818152602001828054610cc790612740565b8015610d145780601f10610ce957610100808354040283529160200191610d14565b820191906000526020600020905b815481529060010190602001808311610cf757829003601f168201915b5050505050905090565b610d30610d2961107d565b838361182a565b5050565b610d45610d3f61107d565b8361141e565b610d84576040517f08c379a0000000000000000000000000000000000000000000000000000000008152600401610d7b906130d2565b60405180910390fd5b610d9084848484611996565b50505050565b6060610da182611032565b6000600660008481526020019081526020016000208054610dc190612740565b80601f0160208091040260200160405190810160405280929190818152602001828054610ded90612740565b8015610e3a5780601f10610e0f57610100808354040283529160200191610e3a565b820191906000526020600020905b815481529060010190602001808311610e1d57829003601f168201915b505050505090506000610e4b6119f2565b90506000815103610e60578192505050610ea3565b600082511115610e95578082604051602001610e7d92919061367e565b60405160208183030381529060405292505050610ea3565b610e9e84611a09565b925050505b919050565b60086020528060005260406000206000915090508060000154908060010154908060020154908060030154905084565b6060600060086000848152602001908152602001600020600201549050610efe816112a1565b915050919050565b6000600560008473ffffffffffffffffffffffffffffffffffffffff1673ffffffffffffffffffffffffffffffffffffffff16815260200190815260200160002060008373ffffffffffffffffffffffffffffffffffffffff1673ffffffffffffffffffffffffffffffffffffffff16815260200190815260200160002060009054906101000a900460ff16905092915050565b6060600060086000848152602001908152602001600020600001549050610fc0816112a1565b915050919050565b60007f01ffc9a7000000000000000000000000000000000000000000000000000000007bffffffffffffffffffffffffffffffffffffffffffffffffffffffff1916827bffffffffffffffffffffffffffffffffffffffffffffffffffffffff1916149050919050565b61103b816117ac565b61107a576040517f08c379a0000000000000000000000000000000000000000000000000000000008152600401611071906135cc565b60405180910390fd5b50565b600033905090565b816004600083815260200190815260200160002060006101000a81548173ffffffffffffffffffffffffffffffffffffffff021916908373ffffffffffffffffffffffffffffffffffffffff160217905550808273ffffffffffffffffffffffffffffffffffffffff166110f883610b4f565b73ffffffffffffffffffffffffffffffffffffffff167f8c5be1e5ebec7d5bd14f71427d1e84f3dd0314c0f7b2291e5b200ac8c7c3b92560405160405180910390a45050565b606060008251036111605760405180602001604052806000815250905061129c565b6000604051806060016040528060408152602001613e83604091399050600060036002855161118f91906136a2565b61119991906136d6565b60046111a59190613707565b67ffffffffffffffff8111156111be576111bd6124de565b5b6040519080825280601f01601f1916602001820160405280156111f05781602001600182028036833780820191505090505b509050600182016020820185865187015b8082101561125c576003820191508151603f8160121c168501518453600184019350603f81600c1c168501518453600184019350603f8160061c168501518453600184019350603f8116850151845360018401935050611201565b5050600386510660018114611278576002811461128b57611293565b603d6001830353603d6002830353611293565b603d60018303535b50505080925050505b919050565b6060600060016112b084611a71565b01905060008167ffffffffffffffff8111156112cf576112ce6124de565b5b6040519080825280601f01601f1916602001820160405280156113015781602001600182028036833780820191505090505b509050600082602001820190505b600115611364578080600190039150507f3031323334353637383961626364656600000000000000000000000000000000600a86061a8153600a858161135857611357613000565b5b0494506000850361130f575b819350505050919050565b6001816000016000828254019250508190555050565b600081600001549050919050565b6113ad828260405180602001604052806000815250611bc4565b5050565b6113ba826117ac565b6113f9576040517f08c379a00000000000000000000000000000000000000000000000000000000081526004016113f0906137d3565b60405180910390fd5b80600660008481526020019081526020016000209081611419919061399f565b505050565b60008061142a83610b4f565b90508073ffffffffffffffffffffffffffffffffffffffff168473ffffffffffffffffffffffffffffffffffffffff16148061146c575061146b8185610f06565b5b806114aa57508373ffffffffffffffffffffffffffffffffffffffff166114928461061c565b73ffffffffffffffffffffffffffffffffffffffff16145b91505092915050565b8273ffffffffffffffffffffffffffffffffffffffff166114d382610b4f565b73ffffffffffffffffffffffffffffffffffffffff1614611529576040517f08c379a000000000000000000000000000000000000000000000000000000000815260040161152090613ae3565b60405180910390fd5b600073ffffffffffffffffffffffffffffffffffffffff168273ffffffffffffffffffffffffffffffffffffffff1603611598576040517f08c379a000000000000000000000000000000000000000000000000000000000815260040161158f90613b75565b60405180910390fd5b6115a58383836001611c1f565b8273ffffffffffffffffffffffffffffffffffffffff166115c582610b4f565b73ffffffffffffffffffffffffffffffffffffffff161461161b576040517f08c379a000000000000000000000000000000000000000000000000000000000815260040161161290613ae3565b60405180910390fd5b6004600082815260200190815260200160002060006101000a81549073ffffffffffffffffffffffffffffffffffffffff02191690556001600360008573ffffffffffffffffffffffffffffffffffffffff1673ffffffffffffffffffffffffffffffffffffffff168152602001908152602001600020600082825403925050819055506001600360008473ffffffffffffffffffffffffffffffffffffffff1673ffffffffffffffffffffffffffffffffffffffff16815260200190815260200160002060008282540192505081905550816002600083815260200190815260200160002060006101000a81548173ffffffffffffffffffffffffffffffffffffffff021916908373ffffffffffffffffffffffffffffffffffffffff160217905550808273ffffffffffffffffffffffffffffffffffffffff168473ffffffffffffffffffffffffffffffffffffffff167fddf252ad1be2c89b69c2b068fc378daa952ba7f163c4a11628f55a4df523b3ef60405160405180910390a46117a78383836001611d45565b505050565b60008073ffffffffffffffffffffffffffffffffffffffff166117ce836117ed565b73ffffffffffffffffffffffffffffffffffffffff1614159050919050565b60006002600083815260200190815260200160002060009054906101000a900473ffffffffffffffffffffffffffffffffffffffff169050919050565b8173ffffffffffffffffffffffffffffffffffffffff168373ffffffffffffffffffffffffffffffffffffffff1603611898576040517f08c379a000000000000000000000000000000000000000000000000000000000815260040161188f90613be1565b60405180910390fd5b80600560008573ffffffffffffffffffffffffffffffffffffffff1673ffffffffffffffffffffffffffffffffffffffff16815260200190815260200160002060008473ffffffffffffffffffffffffffffffffffffffff1673ffffffffffffffffffffffffffffffffffffffff16815260200190815260200160002060006101000a81548160ff0219169083151502179055508173ffffffffffffffffffffffffffffffffffffffff168373ffffffffffffffffffffffffffffffffffffffff167f17307eab39ab6107e8899845ad3d59bd9653f200f220920489ca2b5937696c318360405161198991906121c6565b60405180910390a3505050565b6119a18484846114b3565b6119ad84848484611d4b565b6119ec576040517f08c379a00000000000000000000000000000000000000000000000000000000081526004016119e390613c73565b60405180910390fd5b50505050565b606060405180602001604052806000815250905090565b6060611a1482611032565b6000611a1e6119f2565b90506000815111611a3e5760405180602001604052806000815250611a69565b80611a48846112a1565b604051602001611a5992919061367e565b6040516020818303038152906040525b915050919050565b600080600090507a184f03e93ff9f4daa797ed6e38ed64bf6a1f0100000000000000008310611acf577a184f03e93ff9f4daa797ed6e38ed64bf6a1f0100000000000000008381611ac557611ac4613000565b5b0492506040810190505b6d04ee2d6d415b85acef81000000008310611b0c576d04ee2d6d415b85acef81000000008381611b0257611b01613000565b5b0492506020810190505b662386f26fc100008310611b3b57662386f26fc100008381611b3157611b30613000565b5b0492506010810190505b6305f5e1008310611b64576305f5e1008381611b5a57611b59613000565b5b0492506008810190505b6127108310611b89576127108381611b7f57611b7e613000565b5b0492506004810190505b60648310611bac5760648381611ba257611ba1613000565b5b0492506002810190505b600a8310611bbb576001810190505b80915050919050565b611bce8383611ed2565b611bdb6000848484611d4b565b611c1a576040517f08c379a0000000000000000000000000000000000000000000000000000000008152600401611c1190613c73565b60405180910390fd5b505050565b6001811115611d3f57600073ffffffffffffffffffffffffffffffffffffffff168473ffffffffffffffffffffffffffffffffffffffff1614611cb35780600360008673ffffffffffffffffffffffffffffffffffffffff1673ffffffffffffffffffffffffffffffffffffffff1681526020019081526020016000206000828254611cab9190613c93565b925050819055505b600073ffffffffffffffffffffffffffffffffffffffff168373ffffffffffffffffffffffffffffffffffffffff1614611d3e5780600360008573ffffffffffffffffffffffffffffffffffffffff1673ffffffffffffffffffffffffffffffffffffffff1681526020019081526020016000206000828254611d3691906136a2565b925050819055505b5b50505050565b50505050565b6000611d6c8473ffffffffffffffffffffffffffffffffffffffff166120ef565b15611ec5578373ffffffffffffffffffffffffffffffffffffffff1663150b7a02611d9561107d565b8786866040518563ffffffff1660e01b8152600401611db79493929190613d1c565b6020604051808303816000875af1925050508015611df357506040513d601f19601f82011682018060405250810190611df09190613d7d565b60015b611e75573d8060008114611e23576040519150601f19603f3d011682016040523d82523d6000602084013e611e28565b606091505b506000815103611e6d576040517f08c379a0000000000000000000000000000000000000000000000000000000008152600401611e6490613c73565b60405180910390fd5b805181602001fd5b63150b7a0260e01b7bffffffffffffffffffffffffffffffffffffffffffffffffffffffff1916817bffffffffffffffffffffffffffffffffffffffffffffffffffffffff191614915050611eca565b600190505b949350505050565b600073ffffffffffffffffffffffffffffffffffffffff168273ffffffffffffffffffffffffffffffffffffffff1603611f41576040517f08c379a0000000000000000000000000000000000000000000000000000000008152600401611f3890613df6565b60405180910390fd5b611f4a816117ac565b15611f8a576040517f08c379a0000000000000000000000000000000000000000000000000000000008152600401611f8190613e62565b60405180910390fd5b611f98600083836001611c1f565b611fa1816117ac565b15611fe1576040517f08c379a0000000000000000000000000000000000000000000000000000000008152600401611fd890613e62565b60405180910390fd5b6001600360008473ffffffffffffffffffffffffffffffffffffffff1673ffffffffffffffffffffffffffffffffffffffff16815260200190815260200160002060008282540192505081905550816002600083815260200190815260200160002060006101000a81548173ffffffffffffffffffffffffffffffffffffffff021916908373ffffffffffffffffffffffffffffffffffffffff160217905550808273ffffffffffffffffffffffffffffffffffffffff16600073ffffffffffffffffffffffffffffffffffffffff167fddf252ad1be2c89b69c2b068fc378daa952ba7f163c4a11628f55a4df523b3ef60405160405180910390a46120eb600083836001611d45565b5050565b6000808273ffffffffffffffffffffffffffffffffffffffff163b119050919050565b6000604051905090565b600080fd5b600080fd5b60007fffffffff0000000000000000000000000000000000000000000000000000000082169050919050565b61215b81612126565b811461216657600080fd5b50565b60008135905061217881612152565b92915050565b6000602082840312156121945761219361211c565b5b60006121a284828501612169565b91505092915050565b60008115159050919050565b6121c0816121ab565b82525050565b60006020820190506121db60008301846121b7565b92915050565b600081519050919050565b600082825260208201905092915050565b60005b8381101561221b578082015181840152602081019050612200565b60008484015250505050565b6000601f19601f8301169050919050565b6000612243826121e1565b61224d81856121ec565b935061225d8185602086016121fd565b61226681612227565b840191505092915050565b6000602082019050818103600083015261228b8184612238565b905092915050565b6000819050919050565b6122a681612293565b81146122b157600080fd5b50565b6000813590506122c38161229d565b92915050565b6000602082840312156122df576122de61211c565b5b60006122ed848285016122b4565b91505092915050565b600073ffffffffffffffffffffffffffffffffffffffff82169050919050565b6000612321826122f6565b9050919050565b61233181612316565b82525050565b600060208201905061234c6000830184612328565b92915050565b61235b81612316565b811461236657600080fd5b50565b60008135905061237881612352565b92915050565b600080604083850312156123955761239461211c565b5b60006123a385828601612369565b92505060206123b4858286016122b4565b9150509250929050565b6000806000606084860312156123d7576123d661211c565b5b60006123e586828701612369565b93505060206123f686828701612369565b9250506040612407868287016122b4565b9150509250925092565b6000602082840312156124275761242661211c565b5b600061243584828501612369565b91505092915050565b61244781612293565b82525050565b6000602082019050612462600083018461243e565b92915050565b612471816121ab565b811461247c57600080fd5b50565b60008135905061248e81612468565b92915050565b600080604083850312156124ab576124aa61211c565b5b60006124b985828601612369565b92505060206124ca8582860161247f565b9150509250929050565b600080fd5b600080fd5b7f4e487b7100000000000000000000000000000000000000000000000000000000600052604160045260246000fd5b61251682612227565b810181811067ffffffffffffffff82111715612535576125346124de565b5b80604052505050565b6000612548612112565b9050612554828261250d565b919050565b600067ffffffffffffffff821115612574576125736124de565b5b61257d82612227565b9050602081019050919050565b82818337600083830152505050565b60006125ac6125a784612559565b61253e565b9050828152602081018484840111156125c8576125c76124d9565b5b6125d384828561258a565b509392505050565b600082601f8301126125f0576125ef6124d4565b5b8135612600848260208601612599565b91505092915050565b600080600080608085870312156126235761262261211c565b5b600061263187828801612369565b945050602061264287828801612369565b9350506040612653878288016122b4565b925050606085013567ffffffffffffffff81111561267457612673612121565b5b612680878288016125db565b91505092959194509250565b60006080820190506126a1600083018761243e565b6126ae602083018661243e565b6126bb604083018561243e565b6126c8606083018461243e565b95945050505050565b600080604083850312156126e8576126e761211c565b5b60006126f685828601612369565b925050602061270785828601612369565b9150509250929050565b7f4e487b7100000000000000000000000000000000000000000000000000000000600052602260045260246000fd5b6000600282049050600182168061275857607f821691505b60208210810361276b5761276a612711565b5b50919050565b7f4552433732313a20617070726f76616c20746f2063757272656e74206f776e6560008201527f7200000000000000000000000000000000000000000000000000000000000000602082015250565b60006127cd6021836121ec565b91506127d882612771565b604082019050919050565b600060208201905081810360008301526127fc816127c0565b9050919050565b7f4552433732313a20617070726f76652063616c6c6572206973206e6f7420746f60008201527f6b656e206f776e6572206f7220617070726f76656420666f7220616c6c000000602082015250565b600061285f603d836121ec565b915061286a82612803565b604082019050919050565b6000602082019050818103600083015261288e81612852565b9050919050565b600081905092915050565b7f3c73766720786d6c6e733d22687474703a2f2f7777772e77332e6f72672f323060008201527f30302f73766722207072657365727665417370656374526174696f3d22784d6960208201527f6e594d696e206d656574222076696577426f783d22302030203335302033353060408201527f223e000000000000000000000000000000000000000000000000000000000000606082015250565b6000612948606283612895565b9150612953826128a0565b606282019050919050565b7f3c7374796c653e2e62617365207b2066696c6c3a2077686974653b20666f6e7460008201527f2d66616d696c793a2073657269663b20666f6e742d73697a653a20313470783b60208201527f207d3c2f7374796c653e00000000000000000000000000000000000000000000604082015250565b60006129e0604a83612895565b91506129eb8261295e565b604a82019050919050565b7f3c726563742077696474683d223130302522206865696768743d22313030252260008201527f2066696c6c3d22626c61636b22202f3e00000000000000000000000000000000602082015250565b6000612a52603083612895565b9150612a5d826129f6565b603082019050919050565b7f3c7465787420783d223530252220793d223430252220636c6173733d2262617360008201527f652220646f6d696e616e742d626173656c696e653d226d6964646c652220746560208201527f78742d616e63686f723d226d6964646c65223e00000000000000000000000000604082015250565b6000612aea605383612895565b9150612af582612a68565b605382019050919050565b7f57617272696f7200000000000000000000000000000000000000000000000000600082015250565b6000612b36600783612895565b9150612b4182612b00565b600782019050919050565b7f3c2f746578743e00000000000000000000000000000000000000000000000000600082015250565b6000612b82600783612895565b9150612b8d82612b4c565b600782019050919050565b7f3c7465787420783d223530252220793d223530252220636c6173733d2262617360008201527f652220646f6d696e616e742d626173656c696e653d226d6964646c652220746560208201527f78742d616e63686f723d226d6964646c65223e00000000000000000000000000604082015250565b6000612c1a605383612895565b9150612c2582612b98565b605382019050919050565b7f4c6576656c733a20000000000000000000000000000000000000000000000000600082015250565b6000612c66600883612895565b9150612c7182612c30565b600882019050919050565b6000612c87826121e1565b612c918185612895565b9350612ca18185602086016121fd565b80840191505092915050565b7f53706565643a2000000000000000000000000000000000000000000000000000600082015250565b6000612ce3600783612895565b9150612cee82612cad565b600782019050919050565b7f53747265616e6774683a20000000000000000000000000000000000000000000600082015250565b6000612d2f600b83612895565b9150612d3a82612cf9565b600b82019050919050565b7f4c6966653a200000000000000000000000000000000000000000000000000000600082015250565b6000612d7b600683612895565b9150612d8682612d45565b600682019050919050565b7f3c2f7376673e0000000000000000000000000000000000000000000000000000600082015250565b6000612dc7600683612895565b9150612dd282612d91565b600682019050919050565b6000612de88261293b565b9150612df3826129d3565b9150612dfe82612a45565b9150612e0982612add565b9150612e1482612b29565b9150612e1f82612b75565b9150612e2a82612c0d565b9150612e3582612c59565b9150612e418287612c7c565b9150612e4c82612b75565b9150612e5782612c0d565b9150612e6282612cd6565b9150612e6e8286612c7c565b9150612e7982612b75565b9150612e8482612c0d565b9150612e8f82612d22565b9150612e9b8285612c7c565b9150612ea682612b75565b9150612eb182612c0d565b9150612ebc82612d6e565b9150612ec88284612c7c565b9150612ed382612b75565b9150612ede82612dba565b915081905095945050505050565b7f646174613a696d6167652f7376672b786d6c3b6261736536342c000000000000600082015250565b6000612f22601a83612895565b9150612f2d82612eec565b601a82019050919050565b6000612f4382612f15565b9150612f4f8284612c7c565b915081905092915050565b6000819050919050565b612f75612f7082612293565b612f5a565b82525050565b60008160601b9050919050565b6000612f9382612f7b565b9050919050565b6000612fa582612f88565b9050919050565b612fbd612fb882612316565b612f9a565b82525050565b6000612fcf8286612f64565b602082019150612fdf8285612f64565b602082019150612fef8284612fac565b601482019150819050949350505050565b7f4e487b7100000000000000000000000000000000000000000000000000000000600052601260045260246000fd5b600061303a82612293565b915061304583612293565b92508261305557613054613000565b5b828206905092915050565b7f4552433732313a2063616c6c6572206973206e6f7420746f6b656e206f776e6560008201527f72206f7220617070726f76656400000000000000000000000000000000000000602082015250565b60006130bc602d836121ec565b91506130c782613060565b604082019050919050565b600060208201905081810360008301526130eb816130af565b9050919050565b7f506c656173652075736520616e206578697374696e6720746f6b656e00000000600082015250565b6000613128601c836121ec565b9150613133826130f2565b602082019050919050565b600060208201905081810360008301526131578161311b565b9050919050565b7f596f75206d757374206f776e207468697320746f6b656e20746f20747261696e60008201527f2069740000000000000000000000000000000000000000000000000000000000602082015250565b60006131ba6023836121ec565b91506131c58261315e565b604082019050919050565b600060208201905081810360008301526131e9816131ad565b9050919050565b7f4e487b7100000000000000000000000000000000000000000000000000000000600052601160045260246000fd5b600061322a82612293565b91507fffffffffffffffffffffffffffffffffffffffffffffffffffffffffffffffff820361325c5761325b6131f0565b5b600182019050919050565b7f7b00000000000000000000000000000000000000000000000000000000000000600082015250565b600061329d600183612895565b91506132a882613267565b600182019050919050565b7f226e616d65223a2022436861696e20426174746c657320230000000000000000600082015250565b60006132e9601883612895565b91506132f4826132b3565b601882019050919050565b7f222c000000000000000000000000000000000000000000000000000000000000600082015250565b6000613335600283612895565b9150613340826132ff565b600282019050919050565b7f226465736372697074696f6e223a2022426174746c6573206f6e20636861696e60008201527f222c000000000000000000000000000000000000000000000000000000000000602082015250565b60006133a7602283612895565b91506133b28261334b565b602282019050919050565b7f22696d616765223a202200000000000000000000000000000000000000000000600082015250565b60006133f3600a83612895565b91506133fe826133bd565b600a82019050919050565b7f2200000000000000000000000000000000000000000000000000000000000000600082015250565b600061343f600183612895565b915061344a82613409565b600182019050919050565b7f7d00000000000000000000000000000000000000000000000000000000000000600082015250565b600061348b600183612895565b915061349682613455565b600182019050919050565b60006134ac82613290565b91506134b7826132dc565b91506134c38285612c7c565b91506134ce82613328565b91506134d98261339a565b91506134e4826133e6565b91506134f08284612c7c565b91506134fb82613432565b91506135068261347e565b91508190509392505050565b7f646174613a6170706c69636174696f6e2f6a736f6e3b6261736536342c000000600082015250565b6000613548601d83612895565b915061355382613512565b601d82019050919050565b60006135698261353b565b91506135758284612c7c565b915081905092915050565b7f4552433732313a20696e76616c696420746f6b656e2049440000000000000000600082015250565b60006135b66018836121ec565b91506135c182613580565b602082019050919050565b600060208201905081810360008301526135e5816135a9565b9050919050565b7f4552433732313a2061646472657373207a65726f206973206e6f74206120766160008201527f6c6964206f776e65720000000000000000000000000000000000000000000000602082015250565b60006136486029836121ec565b9150613653826135ec565b604082019050919050565b600060208201905081810360008301526136778161363b565b9050919050565b600061368a8285612c7c565b91506136968284612c7c565b91508190509392505050565b60006136ad82612293565b91506136b883612293565b92508282019050808211156136d0576136cf6131f0565b5b92915050565b60006136e182612293565b91506136ec83612293565b9250826136fc576136fb613000565b5b828204905092915050565b600061371282612293565b915061371d83612293565b9250817fffffffffffffffffffffffffffffffffffffffffffffffffffffffffffffffff0483118215151615613756576137556131f0565b5b828202905092915050565b7f45524337323155524953746f726167653a2055524920736574206f66206e6f6e60008201527f6578697374656e7420746f6b656e000000000000000000000000000000000000602082015250565b60006137bd602e836121ec565b91506137c882613761565b604082019050919050565b600060208201905081810360008301526137ec816137b0565b9050919050565b60008190508160005260206000209050919050565b60006020601f8301049050919050565b600082821b905092915050565b6000600883026138557fffffffffffffffffffffffffffffffffffffffffffffffffffffffffffffffff82613818565b61385f8683613818565b95508019841693508086168417925050509392505050565b6000819050919050565b600061389c61389761389284612293565b613877565b612293565b9050919050565b6000819050919050565b6138b683613881565b6138ca6138c2826138a3565b848454613825565b825550505050565b600090565b6138df6138d2565b6138ea8184846138ad565b505050565b5b8181101561390e576139036000826138d7565b6001810190506138f0565b5050565b601f82111561395357613924816137f3565b61392d84613808565b8101602085101561393c578190505b61395061394885613808565b8301826138ef565b50505b505050565b600082821c905092915050565b600061397660001984600802613958565b1980831691505092915050565b600061398f8383613965565b9150826002028217905092915050565b6139a8826121e1565b67ffffffffffffffff8111156139c1576139c06124de565b5b6139cb8254612740565b6139d6828285613912565b600060209050601f831160018114613a0957600084156139f7578287015190505b613a018582613983565b865550613a69565b601f198416613a17866137f3565b60005b82811015613a3f57848901518255600182019150602085019450602081019050613a1a565b86831015613a5c5784890151613a58601f891682613965565b8355505b6001600288020188555050505b505050505050565b7f4552433732313a207472616e736665722066726f6d20696e636f72726563742060008201527f6f776e6572000000000000000000000000000000000000000000000000000000602082015250565b6000613acd6025836121ec565b9150613ad882613a71565b604082019050919050565b60006020820190508181036000830152613afc81613ac0565b9050919050565b7f4552433732313a207472616e7366657220746f20746865207a65726f2061646460008201527f7265737300000000000000000000000000000000000000000000000000000000602082015250565b6000613b5f6024836121ec565b9150613b6a82613b03565b604082019050919050565b60006020820190508181036000830152613b8e81613b52565b9050919050565b7f4552433732313a20617070726f766520746f2063616c6c657200000000000000600082015250565b6000613bcb6019836121ec565b9150613bd682613b95565b602082019050919050565b60006020820190508181036000830152613bfa81613bbe565b9050919050565b7f4552433732313a207472616e7366657220746f206e6f6e20455243373231526560008201527f63656976657220696d706c656d656e7465720000000000000000000000000000602082015250565b6000613c5d6032836121ec565b9150613c6882613c01565b604082019050919050565b60006020820190508181036000830152613c8c81613c50565b9050919050565b6000613c9e82612293565b9150613ca983612293565b9250828203905081811115613cc157613cc06131f0565b5b92915050565b600081519050919050565b600082825260208201905092915050565b6000613cee82613cc7565b613cf88185613cd2565b9350613d088185602086016121fd565b613d1181612227565b840191505092915050565b6000608082019050613d316000830187612328565b613d3e6020830186612328565b613d4b604083018561243e565b8181036060830152613d5d8184613ce3565b905095945050505050565b600081519050613d7781612152565b92915050565b600060208284031215613d9357613d9261211c565b5b6000613da184828501613d68565b91505092915050565b7f4552433732313a206d696e7420746f20746865207a65726f2061646472657373600082015250565b6000613de06020836121ec565b9150613deb82613daa565b602082019050919050565b60006020820190508181036000830152613e0f81613dd3565b9050919050565b7f4552433732313a20746f6b656e20616c7265616479206d696e74656400000000600082015250565b6000613e4c601c836121ec565b9150613e5782613e16565b602082019050919050565b60006020820190508181036000830152613e7b81613e3f565b905091905056fe4142434445464748494a4b4c4d4e4f505152535455565758595a6162636465666768696a6b6c6d6e6f707172737475767778797a303132333435363738392b2fa2646970667358221220a6cd564e7a0b4ee60ea0d3e1c4af9294f972abd12132f773aac915b496a0070264736f6c63430008100033",
  "devdoc": {
    "kind": "dev",
    "methods": {
      "approve(address,uint256)": {
        "details": "See {IERC721-approve}."
      },
      "balanceOf(address)": {
        "details": "See {IERC721-balanceOf}."
      },
      "getApproved(uint256)": {
        "details": "See {IERC721-getApproved}."
      },
      "isApprovedForAll(address,address)": {
        "details": "See {IERC721-isApprovedForAll}."
      },
      "name()": {
        "details": "See {IERC721Metadata-name}."
      },
      "ownerOf(uint256)": {
        "details": "See {IERC721-ownerOf}."
      },
      "safeTransferFrom(address,address,uint256)": {
        "details": "See {IERC721-safeTransferFrom}."
      },
      "safeTransferFrom(address,address,uint256,bytes)": {
        "details": "See {IERC721-safeTransferFrom}."
      },
      "setApprovalForAll(address,bool)": {
        "details": "See {IERC721-setApprovalForAll}."
      },
      "supportsInterface(bytes4)": {
        "details": "See {IERC165-supportsInterface}."
      },
      "symbol()": {
        "details": "See {IERC721Metadata-symbol}."
      },
      "tokenURI(uint256)": {
        "details": "See {IERC721Metadata-tokenURI}."
      },
      "transferFrom(address,address,uint256)": {
        "details": "See {IERC721-transferFrom}."
      }
    },
    "version": 1
  },
  "userdoc": {
    "kind": "user",
    "methods": {},
    "version": 1
  },
  "storageLayout": {
    "storage": [
      {
        "astId": 25,
        "contract": "contracts/ChainBattles.sol:ChainBattles",
        "label": "_name",
        "offset": 0,
        "slot": "0",
        "type": "t_string_storage"
      },
      {
        "astId": 27,
        "contract": "contracts/ChainBattles.sol:ChainBattles",
        "label": "_symbol",
        "offset": 0,
        "slot": "1",
        "type": "t_string_storage"
      },
      {
        "astId": 31,
        "contract": "contracts/ChainBattles.sol:ChainBattles",
        "label": "_owners",
        "offset": 0,
        "slot": "2",
        "type": "t_mapping(t_uint256,t_address)"
      },
      {
        "astId": 35,
        "contract": "contracts/ChainBattles.sol:ChainBattles",
        "label": "_balances",
        "offset": 0,
        "slot": "3",
        "type": "t_mapping(t_address,t_uint256)"
      },
      {
        "astId": 39,
        "contract": "contracts/ChainBattles.sol:ChainBattles",
        "label": "_tokenApprovals",
        "offset": 0,
        "slot": "4",
        "type": "t_mapping(t_uint256,t_address)"
      },
      {
        "astId": 45,
        "contract": "contracts/ChainBattles.sol:ChainBattles",
        "label": "_operatorApprovals",
        "offset": 0,
        "slot": "5",
        "type": "t_mapping(t_address,t_mapping(t_address,t_bool))"
      },
      {
        "astId": 1091,
        "contract": "contracts/ChainBattles.sol:ChainBattles",
        "label": "_tokenURIs",
        "offset": 0,
        "slot": "6",
        "type": "t_mapping(t_uint256,t_string_storage)"
      },
      {
        "astId": 2806,
        "contract": "contracts/ChainBattles.sol:ChainBattles",
        "label": "_tokenIds",
        "offset": 0,
        "slot": "7",
        "type": "t_struct(Counter)1635_storage"
      },
      {
        "astId": 2811,
        "contract": "contracts/ChainBattles.sol:ChainBattles",
        "label": "tokenIdToStats",
        "offset": 0,
        "slot": "8",
        "type": "t_mapping(t_uint256,t_struct(tokenStats)2803_storage)"
      }
    ],
    "types": {
      "t_address": {
        "encoding": "inplace",
        "label": "address",
        "numberOfBytes": "20"
      },
      "t_bool": {
        "encoding": "inplace",
        "label": "bool",
        "numberOfBytes": "1"
      },
      "t_mapping(t_address,t_bool)": {
        "encoding": "mapping",
        "key": "t_address",
        "label": "mapping(address => bool)",
        "numberOfBytes": "32",
        "value": "t_bool"
      },
      "t_mapping(t_address,t_mapping(t_address,t_bool))": {
        "encoding": "mapping",
        "key": "t_address",
        "label": "mapping(address => mapping(address => bool))",
        "numberOfBytes": "32",
        "value": "t_mapping(t_address,t_bool)"
      },
      "t_mapping(t_address,t_uint256)": {
        "encoding": "mapping",
        "key": "t_address",
        "label": "mapping(address => uint256)",
        "numberOfBytes": "32",
        "value": "t_uint256"
      },
      "t_mapping(t_uint256,t_address)": {
        "encoding": "mapping",
        "key": "t_uint256",
        "label": "mapping(uint256 => address)",
        "numberOfBytes": "32",
        "value": "t_address"
      },
      "t_mapping(t_uint256,t_string_storage)": {
        "encoding": "mapping",
        "key": "t_uint256",
        "label": "mapping(uint256 => string)",
        "numberOfBytes": "32",
        "value": "t_string_storage"
      },
      "t_mapping(t_uint256,t_struct(tokenStats)2803_storage)": {
        "encoding": "mapping",
        "key": "t_uint256",
        "label": "mapping(uint256 => struct ChainBattles.tokenStats)",
        "numberOfBytes": "32",
        "value": "t_struct(tokenStats)2803_storage"
      },
      "t_string_storage": {
        "encoding": "bytes",
        "label": "string",
        "numberOfBytes": "32"
      },
      "t_struct(Counter)1635_storage": {
        "encoding": "inplace",
        "label": "struct Counters.Counter",
        "members": [
          {
            "astId": 1634,
            "contract": "contracts/ChainBattles.sol:ChainBattles",
            "label": "_value",
            "offset": 0,
            "slot": "0",
            "type": "t_uint256"
          }
        ],
        "numberOfBytes": "32"
      },
      "t_struct(tokenStats)2803_storage": {
        "encoding": "inplace",
        "label": "struct ChainBattles.tokenStats",
        "members": [
          {
            "astId": 2796,
            "contract": "contracts/ChainBattles.sol:ChainBattles",
            "label": "level",
            "offset": 0,
            "slot": "0",
            "type": "t_uint256"
          },
          {
            "astId": 2798,
            "contract": "contracts/ChainBattles.sol:ChainBattles",
            "label": "speed",
            "offset": 0,
            "slot": "1",
            "type": "t_uint256"
          },
          {
            "astId": 2800,
            "contract": "contracts/ChainBattles.sol:ChainBattles",
            "label": "strength",
            "offset": 0,
            "slot": "2",
            "type": "t_uint256"
          },
          {
            "astId": 2802,
            "contract": "contracts/ChainBattles.sol:ChainBattles",
            "label": "life",
            "offset": 0,
            "slot": "3",
            "type": "t_uint256"
          }
        ],
        "numberOfBytes": "128"
      },
      "t_uint256": {
        "encoding": "inplace",
        "label": "uint256",
        "numberOfBytes": "32"
      }
    }
  }
}